{
  "contractName": "iconsTokenIco",
  "abi": [
    {
      "constant": true,
      "inputs": [],
      "name": "name",
      "outputs": [
        {
          "name": "",
          "type": "string"
        }
      ],
      "payable": false,
      "stateMutability": "view",
      "type": "function"
    },
    {
      "constant": false,
      "inputs": [
        {
          "name": "_spender",
          "type": "address"
        },
        {
          "name": "_value",
          "type": "uint256"
        }
      ],
      "name": "approve",
      "outputs": [
        {
          "name": "",
          "type": "bool"
        }
      ],
      "payable": false,
      "stateMutability": "nonpayable",
      "type": "function"
    },
    {
      "constant": true,
      "inputs": [],
      "name": "totalSupply",
      "outputs": [
        {
          "name": "",
          "type": "uint256"
        }
      ],
      "payable": false,
      "stateMutability": "view",
      "type": "function"
    },
    {
      "constant": true,
      "inputs": [],
      "name": "fundsWallet",
      "outputs": [
        {
          "name": "",
          "type": "address"
        }
      ],
      "payable": false,
      "stateMutability": "view",
      "type": "function"
    },
    {
      "constant": true,
      "inputs": [],
      "name": "maxCap",
      "outputs": [
        {
          "name": "",
          "type": "uint256"
        }
      ],
      "payable": false,
      "stateMutability": "view",
      "type": "function"
    },
    {
      "constant": true,
      "inputs": [],
      "name": "decimals",
      "outputs": [
        {
          "name": "",
          "type": "uint256"
        }
      ],
      "payable": false,
      "stateMutability": "view",
      "type": "function"
    },
    {
      "constant": true,
      "inputs": [],
      "name": "minCap",
      "outputs": [
        {
          "name": "",
          "type": "uint256"
        }
      ],
      "payable": false,
      "stateMutability": "view",
      "type": "function"
    },
    {
      "constant": false,
      "inputs": [
        {
          "name": "_spender",
          "type": "address"
        },
        {
          "name": "_subtractedValue",
          "type": "uint256"
        }
      ],
      "name": "decreaseApproval",
      "outputs": [
        {
          "name": "",
          "type": "bool"
        }
      ],
      "payable": false,
      "stateMutability": "nonpayable",
      "type": "function"
    },
    {
      "constant": true,
      "inputs": [
        {
          "name": "_owner",
          "type": "address"
        }
      ],
      "name": "balanceOf",
      "outputs": [
        {
          "name": "balance",
          "type": "uint256"
        }
      ],
      "payable": false,
      "stateMutability": "view",
      "type": "function"
    },
    {
      "constant": true,
      "inputs": [],
      "name": "symbol",
      "outputs": [
        {
          "name": "",
          "type": "string"
        }
      ],
      "payable": false,
      "stateMutability": "view",
      "type": "function"
    },
    {
      "constant": true,
      "inputs": [],
      "name": "durationSeconds",
      "outputs": [
        {
          "name": "",
          "type": "uint256"
        }
      ],
      "payable": false,
      "stateMutability": "view",
      "type": "function"
    },
    {
      "constant": true,
      "inputs": [],
      "name": "totalRaised",
      "outputs": [
        {
          "name": "",
          "type": "uint256"
        }
      ],
      "payable": false,
      "stateMutability": "view",
      "type": "function"
    },
    {
      "constant": false,
      "inputs": [
        {
          "name": "_spender",
          "type": "address"
        },
        {
          "name": "_addedValue",
          "type": "uint256"
        }
      ],
      "name": "increaseApproval",
      "outputs": [
        {
          "name": "",
          "type": "bool"
        }
      ],
      "payable": false,
      "stateMutability": "nonpayable",
      "type": "function"
    },
    {
      "constant": true,
      "inputs": [
        {
          "name": "_owner",
          "type": "address"
        },
        {
          "name": "_spender",
          "type": "address"
        }
      ],
      "name": "allowance",
      "outputs": [
        {
          "name": "",
          "type": "uint256"
        }
      ],
      "payable": false,
      "stateMutability": "view",
      "type": "function"
    },
    {
      "constant": true,
      "inputs": [],
      "name": "startTimestamp",
      "outputs": [
        {
          "name": "",
          "type": "uint256"
        }
      ],
      "payable": false,
      "stateMutability": "view",
      "type": "function"
    },
    {
      "inputs": [
        {
          "name": "_fundsWallet",
          "type": "address"
        },
        {
          "name": "_startTimestamp",
          "type": "uint256"
        },
        {
          "name": "_minCap",
          "type": "uint256"
        },
        {
          "name": "_maxCap",
          "type": "uint256"
        }
      ],
      "payable": false,
      "stateMutability": "nonpayable",
      "type": "constructor"
    },
    {
      "payable": true,
      "stateMutability": "payable",
      "type": "fallback"
    },
    {
      "anonymous": false,
      "inputs": [
        {
          "indexed": true,
          "name": "owner",
          "type": "address"
        },
        {
          "indexed": true,
          "name": "spender",
          "type": "address"
        },
        {
          "indexed": false,
          "name": "value",
          "type": "uint256"
        }
      ],
      "name": "Approval",
      "type": "event"
    },
    {
      "anonymous": false,
      "inputs": [
        {
          "indexed": true,
          "name": "from",
          "type": "address"
        },
        {
          "indexed": true,
          "name": "to",
          "type": "address"
        },
        {
          "indexed": false,
          "name": "value",
          "type": "uint256"
        }
      ],
      "name": "Transfer",
      "type": "event"
    },
    {
      "constant": true,
      "inputs": [
        {
          "name": "weiAmount",
          "type": "uint256"
        }
      ],
      "name": "calculateTokenAmount",
      "outputs": [
        {
          "name": "",
          "type": "uint256"
        }
      ],
      "payable": false,
      "stateMutability": "view",
      "type": "function"
    },
    {
      "constant": false,
      "inputs": [
        {
          "name": "_to",
          "type": "address"
        },
        {
          "name": "_value",
          "type": "uint256"
        }
      ],
      "name": "transfer",
      "outputs": [
        {
          "name": "",
          "type": "bool"
        }
      ],
      "payable": false,
      "stateMutability": "nonpayable",
      "type": "function"
    },
    {
      "constant": false,
      "inputs": [
        {
          "name": "_from",
          "type": "address"
        },
        {
          "name": "_to",
          "type": "address"
        },
        {
          "name": "_value",
          "type": "uint256"
        }
      ],
      "name": "transferFrom",
      "outputs": [
        {
          "name": "",
          "type": "bool"
        }
      ],
      "payable": false,
      "stateMutability": "nonpayable",
      "type": "function"
    }
  ],
  "bytecode": "0x60606040526040805190810160405280600b81526020017f49636f6e7320546f6b656e000000000000000000000000000000000000000000815250600390805190602001906200005192919062000239565b506040805190810160405280600581526020017f49434f4e53000000000000000000000000000000000000000000000000000000815250600490805190602001906200009f92919062000239565b506012600555600554600a0a620f4240026006556224ea006009553415620000c657600080fd5b60405160808062001b9b8339810160405280805190602001909190805190602001909190805190602001909190805190602001909190505083600c60006101000a81548173ffffffffffffffffffffffffffffffffffffffff021916908373ffffffffffffffffffffffffffffffffffffffff1602179055508260088190555081600a8190555080600b81905550600654600080600c60009054906101000a900473ffffffffffffffffffffffffffffffffffffffff1673ffffffffffffffffffffffffffffffffffffffff1673ffffffffffffffffffffffffffffffffffffffff16815260200190815260200160002081905550600c60009054906101000a900473ffffffffffffffffffffffffffffffffffffffff1673ffffffffffffffffffffffffffffffffffffffff1660007fddf252ad1be2c89b69c2b068fc378daa952ba7f163c4a11628f55a4df523b3ef6006546040518082815260200191505060405180910390a350505050620002e8565b828054600181600116156101000203166002900490600052602060002090601f016020900481019282601f106200027c57805160ff1916838001178555620002ad565b82800160010185558215620002ad579182015b82811115620002ac5782518255916020019190600101906200028f565b5b509050620002bc9190620002c0565b5090565b620002e591905b80821115620002e1576000816000905550600101620002c7565b5090565b90565b6118a380620002f86000396000f3006060604052600436106100fc576000357c0100000000000000000000000000000000000000000000000000000000900463ffffffff16806306fdde03146103c1578063095ea7b31461044f57806318160ddd146104a95780632194f3a2146104d257806323548b8b1461052757806323b872dd14610550578063313ce567146105c95780633fa615b0146105f2578063661884631461061b57806370a082311461067557806395d89b41146106c25780639acba2af14610750578063a24bcf4614610779578063a9059cbb146107b0578063c5c4744c1461080a578063d73dd62314610833578063dd62ed3e1461088d578063e6fd48bc146108f9575b6000600854421015151561010f57600080fd5b60095460085401421115806101275750600a54600754105b151561013257600080fd5b600b546007541115151561014557600080fd5b61015a3460075461092290919063ffffffff16565b60078190555061016934610940565b90506101de81600080600c60009054906101000a900473ffffffffffffffffffffffffffffffffffffffff1673ffffffffffffffffffffffffffffffffffffffff1673ffffffffffffffffffffffffffffffffffffffff168152602001908152602001600020546109a190919063ffffffff16565b600080600c60009054906101000a900473ffffffffffffffffffffffffffffffffffffffff1673ffffffffffffffffffffffffffffffffffffffff1673ffffffffffffffffffffffffffffffffffffffff16815260200190815260200160002081905550610293816000803373ffffffffffffffffffffffffffffffffffffffff1673ffffffffffffffffffffffffffffffffffffffff1681526020019081526020016000205461092290919063ffffffff16565b6000803373ffffffffffffffffffffffffffffffffffffffff1673ffffffffffffffffffffffffffffffffffffffff168152602001908152602001600020819055503373ffffffffffffffffffffffffffffffffffffffff16600c60009054906101000a900473ffffffffffffffffffffffffffffffffffffffff1673ffffffffffffffffffffffffffffffffffffffff167fddf252ad1be2c89b69c2b068fc378daa952ba7f163c4a11628f55a4df523b3ef836040518082815260200191505060405180910390a3600c60009054906101000a900473ffffffffffffffffffffffffffffffffffffffff1673ffffffffffffffffffffffffffffffffffffffff166108fc349081150290604051600060405180830381858888f1935050505015156103be57600080fd5b50005b34156103cc57600080fd5b6103d46109ba565b6040518080602001828103825283818151815260200191508051906020019080838360005b838110156104145780820151818401526020810190506103f9565b50505050905090810190601f1680156104415780820380516001836020036101000a031916815260200191505b509250505060405180910390f35b341561045a57600080fd5b61048f600480803573ffffffffffffffffffffffffffffffffffffffff16906020019091908035906020019091905050610a58565b604051808215151515815260200191505060405180910390f35b34156104b457600080fd5b6104bc610b4a565b6040518082815260200191505060405180910390f35b34156104dd57600080fd5b6104e5610b50565b604051808273ffffffffffffffffffffffffffffffffffffffff1673ffffffffffffffffffffffffffffffffffffffff16815260200191505060405180910390f35b341561053257600080fd5b61053a610b76565b6040518082815260200191505060405180910390f35b341561055b57600080fd5b6105af600480803573ffffffffffffffffffffffffffffffffffffffff1690602001909190803573ffffffffffffffffffffffffffffffffffffffff16906020019091908035906020019091905050610b7c565b604051808215151515815260200191505060405180910390f35b34156105d457600080fd5b6105dc610bd7565b6040518082815260200191505060405180910390f35b34156105fd57600080fd5b610605610bdd565b6040518082815260200191505060405180910390f35b341561062657600080fd5b61065b600480803573ffffffffffffffffffffffffffffffffffffffff16906020019091908035906020019091905050610be3565b604051808215151515815260200191505060405180910390f35b341561068057600080fd5b6106ac600480803573ffffffffffffffffffffffffffffffffffffffff16906020019091905050610e74565b6040518082815260200191505060405180910390f35b34156106cd57600080fd5b6106d5610ebc565b6040518080602001828103825283818151815260200191508051906020019080838360005b838110156107155780820151818401526020810190506106fa565b50505050905090810190601f1680156107425780820380516001836020036101000a031916815260200191505b509250505060405180910390f35b341561075b57600080fd5b610763610f5a565b6040518082815260200191505060405180910390f35b341561078457600080fd5b61079a6004808035906020019091905050610940565b6040518082815260200191505060405180910390f35b34156107bb57600080fd5b6107f0600480803573ffffffffffffffffffffffffffffffffffffffff16906020019091908035906020019091905050610f60565b604051808215151515815260200191505060405180910390f35b341561081557600080fd5b61081d610fb9565b6040518082815260200191505060405180910390f35b341561083e57600080fd5b610873600480803573ffffffffffffffffffffffffffffffffffffffff16906020019091908035906020019091905050610fbf565b604051808215151515815260200191505060405180910390f35b341561089857600080fd5b6108e3600480803573ffffffffffffffffffffffffffffffffffffffff1690602001909190803573ffffffffffffffffffffffffffffffffffffffff169060200190919050506111bb565b6040518082815260200191505060405180910390f35b341561090457600080fd5b61090c611242565b6040518082815260200191505060405180910390f35b600080828401905083811015151561093657fe5b8091505092915050565b60008061095760328461124890919063ffffffff16565b905062093a80600854014211151561099757610990606461098260968461124890919063ffffffff16565b61128390919063ffffffff16565b915061099b565b8091505b50919050565b60008282111515156109af57fe5b818303905092915050565b60038054600181600116156101000203166002900480601f016020809104026020016040519081016040528092919081815260200182805460018160011615610100020316600290048015610a505780601f10610a2557610100808354040283529160200191610a50565b820191906000526020600020905b815481529060010190602001808311610a3357829003601f168201915b505050505081565b600081600260003373ffffffffffffffffffffffffffffffffffffffff1673ffffffffffffffffffffffffffffffffffffffff16815260200190815260200160002060008573ffffffffffffffffffffffffffffffffffffffff1673ffffffffffffffffffffffffffffffffffffffff168152602001908152602001600020819055508273ffffffffffffffffffffffffffffffffffffffff163373ffffffffffffffffffffffffffffffffffffffff167f8c5be1e5ebec7d5bd14f71427d1e84f3dd0314c0f7b2291e5b200ac8c7c3b925846040518082815260200191505060405180910390a36001905092915050565b60065481565b600c60009054906101000a900473ffffffffffffffffffffffffffffffffffffffff1681565b600b5481565b60006008544210151515610b8f57600080fd5b600b54600754101580610bb85750600954600854014210158015610bb75750600a5460075410155b5b1515610bc357600080fd5b610bce84848461129e565b90509392505050565b60055481565b600a5481565b600080600260003373ffffffffffffffffffffffffffffffffffffffff1673ffffffffffffffffffffffffffffffffffffffff16815260200190815260200160002060008573ffffffffffffffffffffffffffffffffffffffff1673ffffffffffffffffffffffffffffffffffffffff16815260200190815260200160002054905080831115610cf4576000600260003373ffffffffffffffffffffffffffffffffffffffff1673ffffffffffffffffffffffffffffffffffffffff16815260200190815260200160002060008673ffffffffffffffffffffffffffffffffffffffff1673ffffffffffffffffffffffffffffffffffffffff16815260200190815260200160002081905550610d88565b610d0783826109a190919063ffffffff16565b600260003373ffffffffffffffffffffffffffffffffffffffff1673ffffffffffffffffffffffffffffffffffffffff16815260200190815260200160002060008673ffffffffffffffffffffffffffffffffffffffff1673ffffffffffffffffffffffffffffffffffffffff168152602001908152602001600020819055505b8373ffffffffffffffffffffffffffffffffffffffff163373ffffffffffffffffffffffffffffffffffffffff167f8c5be1e5ebec7d5bd14f71427d1e84f3dd0314c0f7b2291e5b200ac8c7c3b925600260003373ffffffffffffffffffffffffffffffffffffffff1673ffffffffffffffffffffffffffffffffffffffff16815260200190815260200160002060008873ffffffffffffffffffffffffffffffffffffffff1673ffffffffffffffffffffffffffffffffffffffff168152602001908152602001600020546040518082815260200191505060405180910390a3600191505092915050565b60008060008373ffffffffffffffffffffffffffffffffffffffff1673ffffffffffffffffffffffffffffffffffffffff168152602001908152602001600020549050919050565b60048054600181600116156101000203166002900480601f016020809104026020016040519081016040528092919081815260200182805460018160011615610100020316600290048015610f525780601f10610f2757610100808354040283529160200191610f52565b820191906000526020600020905b815481529060010190602001808311610f3557829003601f168201915b505050505081565b60095481565b60006008544210151515610f7357600080fd5b600b54600754101580610f9c5750600954600854014210158015610f9b5750600a5460075410155b5b1515610fa757600080fd5b610fb18383611658565b905092915050565b60075481565b600061105082600260003373ffffffffffffffffffffffffffffffffffffffff1673ffffffffffffffffffffffffffffffffffffffff16815260200190815260200160002060008673ffffffffffffffffffffffffffffffffffffffff1673ffffffffffffffffffffffffffffffffffffffff1681526020019081526020016000205461092290919063ffffffff16565b600260003373ffffffffffffffffffffffffffffffffffffffff1673ffffffffffffffffffffffffffffffffffffffff16815260200190815260200160002060008573ffffffffffffffffffffffffffffffffffffffff1673ffffffffffffffffffffffffffffffffffffffff168152602001908152602001600020819055508273ffffffffffffffffffffffffffffffffffffffff163373ffffffffffffffffffffffffffffffffffffffff167f8c5be1e5ebec7d5bd14f71427d1e84f3dd0314c0f7b2291e5b200ac8c7c3b925600260003373ffffffffffffffffffffffffffffffffffffffff1673ffffffffffffffffffffffffffffffffffffffff16815260200190815260200160002060008773ffffffffffffffffffffffffffffffffffffffff1673ffffffffffffffffffffffffffffffffffffffff168152602001908152602001600020546040518082815260200191505060405180910390a36001905092915050565b6000600260008473ffffffffffffffffffffffffffffffffffffffff1673ffffffffffffffffffffffffffffffffffffffff16815260200190815260200160002060008373ffffffffffffffffffffffffffffffffffffffff1673ffffffffffffffffffffffffffffffffffffffff16815260200190815260200160002054905092915050565b60085481565b600080600084141561125d576000915061127c565b828402905082848281151561126e57fe5b0414151561127857fe5b8091505b5092915050565b600080828481151561129157fe5b0490508091505092915050565b60008073ffffffffffffffffffffffffffffffffffffffff168373ffffffffffffffffffffffffffffffffffffffff16141515156112db57600080fd5b6000808573ffffffffffffffffffffffffffffffffffffffff1673ffffffffffffffffffffffffffffffffffffffff16815260200190815260200160002054821115151561132857600080fd5b600260008573ffffffffffffffffffffffffffffffffffffffff1673ffffffffffffffffffffffffffffffffffffffff16815260200190815260200160002060003373ffffffffffffffffffffffffffffffffffffffff1673ffffffffffffffffffffffffffffffffffffffff1681526020019081526020016000205482111515156113b357600080fd5b611404826000808773ffffffffffffffffffffffffffffffffffffffff1673ffffffffffffffffffffffffffffffffffffffff168152602001908152602001600020546109a190919063ffffffff16565b6000808673ffffffffffffffffffffffffffffffffffffffff1673ffffffffffffffffffffffffffffffffffffffff16815260200190815260200160002081905550611497826000808673ffffffffffffffffffffffffffffffffffffffff1673ffffffffffffffffffffffffffffffffffffffff1681526020019081526020016000205461092290919063ffffffff16565b6000808573ffffffffffffffffffffffffffffffffffffffff1673ffffffffffffffffffffffffffffffffffffffff1681526020019081526020016000208190555061156882600260008773ffffffffffffffffffffffffffffffffffffffff1673ffffffffffffffffffffffffffffffffffffffff16815260200190815260200160002060003373ffffffffffffffffffffffffffffffffffffffff1673ffffffffffffffffffffffffffffffffffffffff168152602001908152602001600020546109a190919063ffffffff16565b600260008673ffffffffffffffffffffffffffffffffffffffff1673ffffffffffffffffffffffffffffffffffffffff16815260200190815260200160002060003373ffffffffffffffffffffffffffffffffffffffff1673ffffffffffffffffffffffffffffffffffffffff168152602001908152602001600020819055508273ffffffffffffffffffffffffffffffffffffffff168473ffffffffffffffffffffffffffffffffffffffff167fddf252ad1be2c89b69c2b068fc378daa952ba7f163c4a11628f55a4df523b3ef846040518082815260200191505060405180910390a3600190509392505050565b60008073ffffffffffffffffffffffffffffffffffffffff168373ffffffffffffffffffffffffffffffffffffffff161415151561169557600080fd5b6000803373ffffffffffffffffffffffffffffffffffffffff1673ffffffffffffffffffffffffffffffffffffffff1681526020019081526020016000205482111515156116e257600080fd5b611733826000803373ffffffffffffffffffffffffffffffffffffffff1673ffffffffffffffffffffffffffffffffffffffff168152602001908152602001600020546109a190919063ffffffff16565b6000803373ffffffffffffffffffffffffffffffffffffffff1673ffffffffffffffffffffffffffffffffffffffff168152602001908152602001600020819055506117c6826000808673ffffffffffffffffffffffffffffffffffffffff1673ffffffffffffffffffffffffffffffffffffffff1681526020019081526020016000205461092290919063ffffffff16565b6000808573ffffffffffffffffffffffffffffffffffffffff1673ffffffffffffffffffffffffffffffffffffffff168152602001908152602001600020819055508273ffffffffffffffffffffffffffffffffffffffff163373ffffffffffffffffffffffffffffffffffffffff167fddf252ad1be2c89b69c2b068fc378daa952ba7f163c4a11628f55a4df523b3ef846040518082815260200191505060405180910390a360019050929150505600a165627a7a72305820a66fe8dd1438e5f418abcb3d90c57165202b46db2991605016b6006157e85a540029",
  "source": "pragma solidity ^0.4.0;\n\nimport '/zeppelin-solidity/contracts/token/ERC20/ERC20Basic.sol';\nimport '/zeppelin-solidity/contracts/token/ERC20/StandardToken.sol';\n\n\ncontract iconsTokenIco is StandardToken {\n    using SafeMath for uint256;\n\n    string public name = \"Icons Token\";\n    string public symbol = \"ICONS\";\n    uint256 public decimals = 18;\n\n    uint256 public totalSupply = 1000000 * (10 ** decimals);\n    uint256 public totalRaised; // total ether raised (in wei)\n\n    uint256 public startTimestamp; // timestamp after which ICO will start\n    uint256 public durationSeconds = 4 * 7 * 24 * 60 * 60; // 4 weeks\n\n    uint256 public minCap; // the ICO ether goal (in wei)\n    uint256 public maxCap; // the ICO ether max cap (in wei)\n\n    /**\n     * Address which will receive raised funds\n     * and owns the total supply of tokens\n     */\n    address public fundsWallet;\n\n    function iconsTokenIco(\n        address _fundsWallet,\n        uint256 _startTimestamp,\n        uint256 _minCap,\n        uint256 _maxCap) {\n        fundsWallet = _fundsWallet;\n        startTimestamp = _startTimestamp;\n        minCap = _minCap;\n        maxCap = _maxCap;\n\n        // initially assign all tokens to the fundsWallet\n        balances[fundsWallet] = totalSupply;\n        Transfer(0x0, fundsWallet, totalSupply);\n    }\n\n    function() isIcoOpen payable {\n        totalRaised = totalRaised.add(msg.value);\n\n        uint256 tokenAmount = calculateTokenAmount(msg.value);\n        balances[fundsWallet] = balances[fundsWallet].sub(tokenAmount);\n        balances[msg.sender] = balances[msg.sender].add(tokenAmount);\n        Transfer(fundsWallet, msg.sender, tokenAmount);\n\n        // immediately transfer ether to fundsWallet\n        fundsWallet.transfer(msg.value);\n    }\n\n    function calculateTokenAmount(uint256 weiAmount) constant returns(uint256) {\n        // standard rate: 1 ETH : 50 ICONS\n        uint256 tokenAmount = weiAmount.mul(50);\n        if (now <= startTimestamp + 7 days) {\n            // +50% bonus during first week\n            return tokenAmount.mul(150).div(100);\n        } else {\n            return tokenAmount;\n        }\n    }\n\n    function transfer(address _to, uint _value) isIcoFinished returns (bool) {\n        return super.transfer(_to, _value);\n    }\n\n    function transferFrom(address _from, address _to, uint _value) isIcoFinished returns (bool) {\n        return super.transferFrom(_from, _to, _value);\n    }\n\n    modifier isIcoOpen() {\n        require(now >= startTimestamp);\n        require(now <= (startTimestamp + durationSeconds) || totalRaised < minCap);\n        require(totalRaised <= maxCap);\n        _;\n    }\n\n    modifier isIcoFinished() {\n        require(now >= startTimestamp);\n        require(totalRaised >= maxCap || (now >= (startTimestamp + durationSeconds) && totalRaised >= minCap));\n        _;\n    }\n}",
  "sourcePath": "/Users/Antoine/Developer/Projects/Icons/Code/iconsTruffle/contracts/iconsTokenIco.sol",
  "compiler": {
    "name": "solc",
    "version": "0.4.21+commit.dfe3193c.Emscripten.clang"
  },
  "schemaVersion": "2.0.0",
  "updatedAt": "2018-04-25T18:45:18.284Z"
}